:020000040800F2
:1000000000A000205DC60108F1C601089DB20108EC
:10001000F1C60108F1C60108F1C6010800000000A0
:10002000000000000000000000000000F1C6010810
:10003000F1C6010800000000F1C6010851B2010834
:10004000F1C60108F1C60108F1C60108F1C60108B0
:10005000F1C60108F1C6010899B2010895B201087C
:1000600091B201088DB2010889B20108C1B301083B
:10007000ADB3010899B3010885B3010871B3010854
:100080005DB3010849B30108F1C60108F1C60108D2
:10009000F1C60108F1C60108F1C6010885B20108E0
:1000A000D9B1010819B20108C9B1010841B201086A
:1000B00009B20108F9B10108E9B10108F1C6010866
:1000C000F1C60108F1C60108F1C60108F1C6010830
:1000D000F1C60108D5B20108C9B20108BDB20108D4
:1000E00081B20108F1C60108F1C60108F1C6010894
:1000F000F1C60108F1C60108F1C60108F1C6010800
:10010000000000000000000000000000F1C601082F
:10011000F1C60108F1C60108F1C60108F1C60108DF
:1001200035B3010821B301080DB30108F9B2010884
:10013000E1B20108F1C60108000000000000000063
:10014000F1C60108F1C60108F1C60108000000006F
:10015000000000000000000000000000000000009F
:100160000000000000000000F1C60108F1C601080F
:10017000F1C60108000000000000000000000000BF
:0801800000000000F1C60108B7
:100188002DE9F04F2DED028BA94DABB04FF48062F5
:1001980005F5EA7000211CF0CFFB0023A54AC5F83D
:1001A800D43585F8D835C5F8DC25C5F8E0350EF026
:1001B800C3FD18B914F0B8F80FF00CF80EF0E0FD14
:1001C800002001460EF077F99B4B9C4C1A7842F0C0
:1001D80001021A709A4B4FF47002C3F8882000236A
:1001E80008930993236843F480332360236803F456
:1001F80000330993089B01330893099B1BB9089B9B
:10020800B3F5A04FF2D1236813F4003318BF0123CC
:100218000993099B012B54D0894F8A4BFB60636A71
:10022800C5F8E435636A43F080736362636943F435
:10023800FC032AAE636103238DF85A3041F6FF733D
:1002480026F8503D4FF09040314609F04AFB4FF6F2
:10025800FF7331467C48ADF8583009F042FB31460F
:100268007A4809F03EFB3146794809F03AFB3146B5
:10027800784809F036FB3146774809F032FB3046BA
:1002880009F05EF9754A169B7548764EB3FBF2F392
:1002980000211022C5F8E8351CF04EFB724B734A5A
:1002A8005A60F02287F82320072100229A601960FB
:1002B800317C6F4B891A18BF0121D971D9735C49F8
:1002C80037E06C4B12221A6063686360636863608E
:1002D800636843F480636360636823F47C1363603A
:1002E800636843F4E8136360236843F08073236012
:1002F8002268524B9601FBD55A6822F003025A60D5
:100308005A6842F002025A60636803F00C03082B33
:10031800FAD181E74EFA03F0C00704D501209840CE
:100328000F6088800C310133102BF3D10132062A7B
:1003380008D05148970230F812E007F1904700239F
:100348008146E7E74D4FB3683B6000200AF054FE52
:1003580017234FF0010885F8EA30022385F8EB30BF
:100368004146474885F8EC800FF0EAF800200AF08B
:1003780043FEA3694348DFF8ECA043EA0803A361FE
:10038800002140221CF0D8FA0722FF213E481CF029
:10039800D3FA404600210EF08EF83B681A0740F168
:1003A80080809AF88C3143457BD89AF8954115F0AE
:1003B8006EFF28B9631E092B8CBF0023012300E0C0
:1003C8000023002B6DD02B200AF08DFA182383719F
:1003D8004FF000080223C371044680F80880012109
:1003E800C5F844060FF0ACF8204601210AF0B7FA28
:1003F8003C200AF0FAF896F89531DFF868A098459D
:1004080044DA00200AF0F8FD002120460AF0A7FA95
:1004180078200AF0DFF801200AF0EEFD20460121DD
:100428000AF09DFA78200AF0D5F808F10108E2E709
:10043800E8050020EFA60008C84D00200010024083
:1004480000ED00E00005FA05000400480008004837
:10045800000C0048001000480014004840420F00FB
:10046800D40B0020E044002010E000E03F19010018
:100478000000002000200240FCDC0108304F002072
:10048800CC060020E40B0020240C00209AF89631BA
:10049800012B06D115F0FBFE18B98AF8950119F061
:1004A800B1F94FF4FA700AF0A0F8694800214FF446
:1004B8008C721CF041FA0024664AA058002390462A
:1004C800654A52F8331081424FEAC30E02D1724492
:1004D800107903E001330A2BF2D100200C340EF01E
:1004E80099FFCC2CE8D15D4C04F1CC0A20780AF0B5
:1004F800FAF90C3414F8081C14F8072C0EF0A8FFAD
:100508005445F3D100225649002353540132112A8D
:10051800F9D1544C04F25962FF2199540133072B45
:10052800F7D1D7F800A0504BC4F8603604F5CD6079
:100538003C2200211CF000FA0AF0400B052200239F
:1005480004F5CD644949585C0C2159436054BBF10A
:10055800000F09D11E38012806D845484FF0FF0E74
:10056800013A01F800E0D2B20133052BEAD17379E0
:1005780085F864263F4AC5F8A82603F0EF02082A42
:100588003D4A85F8A436117801D00E2B04D10E2BE4
:1005980041F0100004D105E021F01001117006E0CF
:1005A800182B02D161F06F0104E03349087011780B
:1005B80001F07F011170314AC5F8AC26304ADC00E1
:1005C800111996464878897885F8B1160C2101FBEF
:1005D800039185F8B00691F8D91011B9CAF3401102
:1005E80000E00121C9B285F8B21611B9CAF3005268
:1005F80000E00122C5F8B42600221A4D05F5D7609F
:1006080040F2DC5C22F800C00232102AF5D121B990
:10061800173B022B134C41D836E074441EF83300C4
:10062800646885F8C806002CF2D000228242EFDA0E
:10063800062151436518DFF84CE0D5F8009041F8E1
:100648000E9001EB0E0CA988ACF804100132EDE70E
:10065800A84C002008DD0108201202080CDD010862
:10066800300C0020E8050020484700200812020846
:10067800500C0020F4440020384F0020B4450020DE
:1006880038110208B10C002009F070FC94F8C83643
:1006980023B10123C4F8B43684F8B2360FA8002178
:1006A8001C221CF049F93D68AB050CD520222123FA
:1006B800012184F8292784F82A378DF848108DF805
:1006C80056208DF8573073790E2B03D003F0EF03C3
:1006D800082B02D101238DF85030022009F0E2FAEC
:1006E80018B14088003018BF0120C5F340038DF8C9
:1006F8004430C5F380138DF84630C5F340338DF888
:100708003C30C5F3C03300F001008DF83F3015F4DC
:1007180000638DF8420007D096F88031B3F1010EDE
:10072800DEF1000353EB0E038DF84030C5F30043B0
:100738008DF8473094F8B236003318BF01238DF88E
:100748004930C5F300538DF84A30B6F83E31ADF85C
:100758004E30B6F84031ADF84C3096F83C318DF853
:1007680051305A1E022A8CBF002201228DF84520E2
:10077800B6F83A21ADF8522005F0010AC5F3C009D0
:10078800B6F838218DF83DA0E8048DF83E90ADF814
:10079800542004D5BD4AB2F84621ADF85420042BA4
:1007A80008D100254FF480508DF845500AF032F9F1
:1007B800ADF85450B54BB64893F8DC3184F82B3774
:1007C8003B68190148BF00234FF000014FF0900229
:1007D80048BF8DF849301CF0AFF89DF85030002B19
:1007E80014BF02230023BAF1000F02D1B9F1000FA0
:1007F80000D00133A74A4FF0000A52F8232007928D
:100808005646079B33F816904FF6FF73994500F04C
:10081800E3815FFA89F20C239DF84210534308EBF9
:10082800030519B129792A39012924D99DF84610D7
:1008380021B158F80310984881421CD09DF8471000
:1008480039B158F803109548814214D029791829EC
:1008580011D09DF8441011B1297914290BD09DF8B5
:10086800481099B129799DF85600884203D09DF81F
:10087800570088420AD194F82C2794F82D37009213
:100888000322019212200121B2B2E6E04FEA1929AF
:10089800B9F1020F02D19DF83C1004E0B9F1010F43
:1008A80004D19DF83D10002900F092819DF849106F
:1008B80069B19DF8501051B9A2F10E01012906D86D
:1008C80058F803107648814208BF4FF004099DF894
:1008D8004A1031B19DF8501019B9043A032A40F270
:1008E8003481B9F1010F53D10027287984F80878A9
:1008F800FF22C4F8145884F8002884F8012884F8E2
:10090800BC77C4F8C077C4F8C477C4F8C877C4F80B
:10091800FC7784F8027884F8037884F804780593DF
:1009280009F0E1FF0221817180F807900772297AA6
:100938000EF006FE059B697958F803003A4608F060
:1009480077FD284639464A4613F0AAF85549564BCA
:10095800C4F81838554BC4F81C380A1D2846C4F882
:1009680020780DF061FE94F82E3704EBC3032022A3
:1009780083F8352794F8303794F82C27013384F816
:100988003037132094F82D3739468DE88400D7E0A6
:10099800B9F1020F4FD15FFA8AF245481C21514341
:1009A80047184FF0010B4FF000097A7087F8029052
:1009B80087F80A9000F801B02879FD60059306923F
:1009C80009F091FF069A80F806B05A44027280F83E
:1009D80007B0297A0EF0B4FD059B697958F8030031
:1009E8004A4608F025FD284649465A4613F058F865
:1009F800304B3B61304B7B61284607F1100107F112
:100A08001402C7F818900DF00FFE94F82E3704EB77
:100A1800C303402283F8352794F82F3794F82C27FE
:100A28005B4484F82F37DA4494F82D3713208DE887
:100A38000408494684E0B9F1030F40F0838094F834
:100A48002D97B9F10B0F0BD91C4B012193F82C37BB
:100A5800009301911220B2B24B460DF013FDB7E09E
:100A68009DF851B0BDF85200BDF854300BF1FF317C
:100A780003292CD8DFE801F02E062802104F182190
:100A8800002329E00F4F182126E000BFE044002092
:100A9800140D00201012020800040040002C014030
:100AA80000400140000E0020F7A000084194010812
:100AB800F00D00207594000865A20008E8050020E4
:100AC8009DA20008E9A20008B94F482104E0B94FE7
:100AD800012101E0B84F0821B84A4A43B2FBF0F2BD
:100AE80092B228460FF014FF04EB8902B44BC2F807
:100AF800E8089DF8451094F82E27C76003EBC20359
:100B080009B1192204E0BBF1040F0CBF0D22092220
:100B180083F8352794F82E2794F82D37013204EB03
:100B2800C202132082F82C370133C2F83057DBB2E7
:100B380094F82C2784F82D37009202220192002184
:100B4800B2B23EE0B9F1040F42D194F82C979C4F11
:100B5800B9F1070F1FFA86FB09D9022297F82D373A
:100B68000192CDF80090122001215A4675E7BDF890
:100B78004C30924A92FBF3F2012192B2BDF84E300A
:100B880028460FF0C5FE07EB89030A22C3F81809A7
:100B980097F82E37013307EBC303132083F82D276B
:100BA80097F82C2783F82C270132D2B2C3F8305794
:100BB80087F82C2797F82D370092032201920021FD
:100BC8005A460DF05FFC94F82E37013384F82E371F
:100BD8000136112E7FF415AE94F8A426A2F117035E
:100BE8000025022B84F838591ED8D4F8A836744F3B
:100BF8002B44D3ED007AF5EE407AF1EE10FA04D1E9
:100C0800704F3B68DA0431D427E00FCB07F63C1667
:100C18002E4486E80F0097F8383910350133C02D77
:100C280087F83839E1D1EBE7674B0C2101FB023338
:100C3800634AD3F8DCE093F8D87082F83879BEF1CB
:100C4800000FDDD0BD42DBDA604E2B011E44734439
:100C58000FCB013586E80F00F4E710F059FC9DF83A
:100C680045301BBB012384F8FC391FE094F8381980
:100C78000129F2D9564B00228A4203F11003ECDA1B
:100C880013ED047AF6EE007A27EE277A013203EDA7
:100C9800047A13ED057A27EE277A03ED057A13ED2A
:100CA800037A67EE277A43ED037AE5E7494D002199
:100CB80002200DF000FC2B783F2043F004032B703A
:100CC80009F011FE0121C4F8000A84F8041A38B1A9
:100CD800112282710222C271002202720EF030FCCF
:100CE8003D4E002009F046FE96F828000EF092FBD3
:100CF80096F8282002F01F0352090121022A01FA5E
:100D080003F308D0032A0BD08A420DD1334A916AE3
:100D18000B43936208E0314AD1680B43D36003E088
:100D28002E4A11690B43136196F825002A4D09F0E4
:100D3800DAFD4FF00C090B234FF0020AC37180F85B
:100D4800069080F808A096F8270009F0CCFD0D233E
:100D5800C37180F8069080F808A096F8260009F07C
:100D6800C2FD80F808A096F82C3080F8069080F82C
:100D7800079013B995F82D3093B396F8250009F02C
:100D8800B2FD4E2196F829200EF062FB96F8270056
:100D980009F0A9FD2E2196F829200EF059FB96F8A6
:100DA800260009F0A0FD0E2196F8292031E000BFA9
:100DB80015A300088DA20008C7A2000840420F0032
:100DC800E8050020304F0020FCDC0108240F00203B
:100DD8002C0F0020C84D0020000000200010024009
:100DE80095F8250009F07FFD0E2195F829200EF0D1
:100DF8002FFB95F8270009F076FD0E2195F829209C
:100E08000EF026FB95F8260009F06DFD95F82920CF
:100E18000E210EF01DFB96F8240038B109F063FD91
:100E28009D4B0D2193F829200EF012FB336A9B4A43
:100E380093420AD102F56042D16841F48051D160F1
:100E4800D16821F48051D16019E0954A934209D1C3
:100E580002F5EC32116941F480411161116921F404
:100E680080410BE08F4A934209D102F5EA321169B9
:100E780041F400411161116921F40041116196F8B2
:100E88002C2022B9844991F82D1019B100E00022D4
:100E9800104601E001220220998821F480510904BA
:100EA800090C9980998889B241F4805199801988F0
:100EB80001F4415141F445710A43104318809A885E
:100EC80022F470621204120C42F4E0629A809A8B47
:100ED80022F400621204120C9A8307221A821A88DA
:100EE80092B242F040021A8096F8240018B109F034
:100EF800FAFC09F024FD3B6803F41073B3F5107F86
:100F080019D030793568DFF8C09109F0ECFC8346D8
:100F1800707909F0E8FC8246B0790EF07BFA624AF3
:100F2800624B954218BF10231A0F15D1D9F83020FB
:100F380022F0100214E094F8642600235C49585605
:100F48001F2803D1FF20013A5854D2B20C333C2B4E
:100F5800F4D184F86426D4E7D9F8302022F02002AE
:100F6800C9F83020D9F830201343C9F830304FF091
:100F7800010809234FF00D0C8BF807308BF806C0D9
:100F88008BF8088058463E210422CDF818C00EF090
:100F98005FFADDF818C08AF806C00A228AF8072026
:100FA8008AF8088050463E2104220EF051FAF07962
:100FB800404A4149414E002818BF11462A6822F08C
:100FC80001022A6028683E4A02402A6029612A688C
:100FD800002142EA08022A60A960E960A960AA68BB
:100FE80042F40042AA602A682A606A6822F07842BD
:100FF80022F400426A602A6822F400322A602A68D1
:1010080042EA08022A604FF0140A3D6884F8058A0B
:1010180006F6072052461BF08FFC05F4004BAB0781
:1010280005F4006848BF86F807AABBF1000F02D094
:10103800222384F80C3AB8F1000F02D0152384F863
:10104800163A00244FF00F0B2646DFF880A014F85C
:101058000A005546002848D009F045FC062383714C
:101068000023037280F807B01AF80400059309F00A
:101078003AFC13210EF064FA1AF80410059B114A81
:1010880002F5047E58001EF813E08E4520D1024474
:1010980092F8112220E000BF00000020003001403B
:1010A80000380040003C004000580040200000107C
:1010B800500C0020300E50007A25E000E805002092
:1010C800FFE0CF00FCDC010800100240EF0F002019
:1010D8000133272BD3D100222B1907215A701971FC
:1010E800721C01219E70D970D6B205340BF1010B28
:1010F800142C5FFA8BFBA8D1D9F82C306D4C23F453
:10110800F873C9F82C30D9F82C3043F4D873C9F8DF
:101118002C303C200EF07EF921200EF07BF965483A
:1011280017F06BFC16A817F03DFC634B1693634B46
:101138001793022E4FF0000334BF1A4680221B92E9
:101148004FF480721C924FF480621D922022204638
:101158001E9216A94FF4005218931A931F922093C7
:10116800ADF8646017F02BFC236843F0010323609B
:10117800534CA36823F04053A360A36843F0805303
:10118800A3600A2009F031FAA36823F08043A36022
:10119800A368A360A36843F00043A360A268484B18
:1011A800002AFBDB9A68474922F040529A609A6805
:1011B80042F000529A608868434A024042F468321A
:1011C8008A60D968414A0A4042F40052DA601A6BD0
:1011D800013E22F00F0216431E63002001232A1845
:1011E800D178002900F086805C1C042B5178167990
:1011F800334AE4B210D803EB4303D2F830C05B00A3
:101208004FF01F0E0EFA03FE2CEA0E0E01FA03F33E
:101218004EEA0303136338E0092B12D84FF0060E89
:10122800053B0EFB03F3D2F834C04FF01F0E0EFA45
:1012380003FE2CEA0E0E01FA03F34EEA030353638E
:1012480023E00E2B4FF0060E0FD80A3B0EFB03FED1
:10125800D2F838C01F2303FA0EF32CEA030301FA6D
:101268000EFE43EA0E0393630FE00F3B0EFB03F3FE
:10127800D2F83CC04FF01F0E0EFA03FE2CEA0E0EF9
:1012880001FA03F34EEA0303D36309290C4B1FD970
:101298000A399A699A6901EB41014FF0070E0EFA73
:1012A80001FE22EA0E029A619A6906FA01F11143D7
:1012B80099611EE00804024040010050041000201B
:1012C8000001005000030050E010FCFF07C0FFFDC4
:1012D80001395A695A6901EB41014FF0380E0EFA8B
:1012E80001FE22EA0E025A615A6903318E40164302
:1012F8005E612346053014287FF471AFA84B9A68C5
:1013080042F001029A6019460A68A54BD607FBD538
:10131800DA6822F00202DA60DA6842F00202DA6081
:10132800DA6842F00102DA609A6842F004029A60D0
:1013380014F0ADFF044688B9214603200DF0BBF830
:10134800204609F059FE05240BF0E0FE642009F060
:101358004CF9013CF8D1204609F04EFE17F040F94F
:101368003B68904C13F4003F1ED0C82009F03DF9AB
:10137800AE2019F0D7F908B119F0D8F984F8240A81
:10138800C82009F032F9884BC4F8283A002384F8B9
:101398002C3A012384F82D3A09F0D3F8834B0344FF
:1013A800C4F8303A19F052FA3B681D0602D5804B52
:1013B800804A1A60804DD4F8343AEE8995F8540181
:1013C80095F8611195F86221B3F93E30009695F8C9
:1013D8005E6101966E7C0296AE7C039617F084FBE4
:1013E80010B901200CF048FC042000210DF063F82E
:1013F800724A1378002043F00203137009F0FCFDD1
:101408004FF00A090BF082FE192009F0EEF8D5F822
:10141800BC37D80302D4012009F0ACFA192009F02E
:10142800E4F809F1FF39002009F0A4FA19F0FF09DE
:10143800E8D1484609F0E0FDD4F8383A9FED608AD3
:101448001B7C584E5F4F00EE103AB8EEC00A4FF0C2
:10145800000820EE080A14F063FB06F52462D2EDBA
:10146800047A594B27EE888A83ED000A06F63C2356
:1014780083ED008A06F6582308EE108AC3F8008028
:10148800C3F80480C3F8088008F0B4FF1A2206F6EF
:101498006420FF211BF050FA3A6884F8649A01230B
:1014A80012F0020E84F87E3A0AD086F8653A0223D2
:1014B80086F8663A042386F87E3A192386F8673A4E
:1014C80094F87E3A3749E018132680F8646A5E1C5F
:1014D80054FA86F64FF0160C981CC0B286F864CA07
:1014E80012F00A0C84F87E0A12D00844042680F808
:1014F800646AD81C51FA80F0052680F8646A981945
:10150800043381F87E0A51FA83F1062381F8643A9C
:101518002E4E3368990608D594F87E1A481C214443
:1015280084F87E0A072081F8640A697901F0EF00DF
:10153800082806D0B1F10E08D8F1000050EB0800D9
:1015480000E00120520702D4A0B11A0612D594F87F
:101558007E2A04EB020A4FF0030B8AF864BA02F100
:10156800020A013254FA82F284F87EAA4FF0170A6E
:1015780082F864AA13F0800202D0BCF10A0F29D0C5
:10158800002854D0BEF1000F22D194F87E2A501CB6
:10159800224484F87E0A0A2082F8640A47E000BFE1
:1015A80000010050E805002064460020404B4C0034
:1015B8003C4F0020D6460020E0440020C84D0020C3
:1015C80035FA8E3C344F0020AC4F0020304F0020BD
:1015D800002ADAD094F87E2A04EB020E4FF0090CA8
:1015E8008EF864CA02F1010E54FA8EFE4FF0080C10
:1015F8008EF864CA02F1020E54FA8EFE4FF0120CF5
:101608008EF864CA02F1030E54FA8EFE4FF0140CE1
:101618008EF864CA02F1050E043254FA82F284F894
:101628007EEA4FF0150E82F864EA0028ADD10E2943
:1016380001D0182908D194F87E2A511C224484F834
:101648007E1A182182F8641A94F87E2ABC48511C24
:1016580004EB020EC9B24FF00B0C13F4803F84F870
:101668007E1A8EF864CA06D00232014480F87E2AB7
:101678000C2281F8642A94F87E2AB148511C04EBA4
:10168800020EC9B24FF00E0C13F4806F84F87E1A64
:101698008EF864CA0BD095F894E2BEF1000F06D01C
:1016A8000232014480F87E2A0F2281F8642A1A0344
:1016B80008D594F87E2A511C224484F87E1A1021F9
:1016C80082F8641AD80508D594F87E3A5A1C23443F
:1016D80084F87E2A112283F8642A9A4B9A48C4F81F
:1016E800803A002198221BF027F919F0BDFF974A8C
:1016F800B5F84831D4F8341AB5F89A01A4F8203B63
:10170800002301F1400EC4F81C2BA4F8243B84F8F4
:10171800263BC4F8482B84F84C3B81B290468C4A4F
:10172800DFF864C2D2F800A023F80C100CF1260CE4
:101738000AF5967A4CF813A00233242B9246EED180
:10174800D6F800C01CF4805F0CBFB5F8A2310B4678
:10175800A4F8543B00231EF80320BAB90EEB030289
:10176800917892F803B0594510D209B1013901E0D6
:101778000BF1010101EB8101527801EB810101F5C7
:10178800617104EB420289B2A2F8561B0433502B54
:10179800E1D11CF0080F00F02B8195F88C11082975
:1017A80000F22081DFE811F009000C0013003B0073
:1017B800540075007500AC00F20045F2F05301E0EA
:1017C80042F6F823A4F8BC3B19F002FF09E142F6FF
:1017D800F823A4F8BC3B00010A2390FBF3F0A0F522
:1017E800B0600023564A02F53C6158500433482B38
:1017F800F8D1584B584919644020122382F8083C04
:1018080008F08EFA002800F0ED800121072390F9F6
:101818000000524A8DE80A004021514B8AE042F606
:10182800F823A4F8BC3B4B4B4E4A1A6440201023C3
:1018380084F8083C08F074FA002800F0D3800122EC
:10184800002390F9000040218DE80C00464A6FE023
:1018580042F6F823A4F8BC3B3E4B444A1A644020A5
:10186800082384F8083C08F05BFA002800F0BA80E6
:1018780001234FF0000B90F900003D4A8DE808085D
:1018880040214FF4E13310F08FF82D4BC3F80C0CC6
:1018980052E02B4B42F6F822A4F8BC2B0C20002275
:1018A800062983F8080C83F8102C83F8112C83F888
:1018B800122C0AD01B2283F8132C052283F8140C4F
:1018C80083F8152C4FF4E13507E02122294D83F8E0
:1018D800132C83F8140C83F8151C1E4B264A1A6423
:1018E800402008F01DFA00287CD001234FF0000C9E
:1018F80090F90000214A8DE8081040212B4619E094
:1019080044F62063A4F8BC3B124B1D4A1A644020DD
:101918000A2384F8083C08F003FA002862D001235F
:101928004FF0000E90F90000164A8DE8084040215B
:101938004FF4E13310F038F8003018BF012050E0C0
:10194800E8050020E52100086C100020644600200E
:10195800C04D002000000020898F0008199200085F
:10196800A0860100518F0008199100083D8F0008DA
:10197800CD90000890D00300258F00080190000842
:10198800F58F0008719200083611002041F27C534F
:10199800A4F8BC3BB34BB44A1A64102384F8083C3F
:1019A8004FF0000B28234020B04D84F816BC84F873
:1019B800173C08F0B5F9A8B1032390F90000AC4A28
:1019C8008DE808084021AB4B0FF0EEFF0121C5F868
:1019D800180C08F020FED5F8180CB0EB0B0018BF57
:1019E800012028B9082009F015F89E4BA24A1A646C
:1019F80033685D0405D5122284F8082C994A9F495A
:101A0800116442F201021A4003F0010103F400508C
:101A180092B144F62062A4F8BC2B30B1934A082056
:101A280082F8080C8F4A9648106429B10C2284F871
:101A3800082C8C4A9349116494F8082C1806A2F1D2
:101A4800040284F8092C59D58F4D904B6B60723B7A
:101A58002B608F4B4FF0000BC3F804B0C3F808B0ED
:101A680085F811B014F0E6F9DAF800302B62584620
:101A780085F813B00CF042FD2B68864A1B780C21C0
:101A88004B439246D35C022B03D101200CF036FD68
:101A980030E0012B2ED1022008F042F918B980203D
:101AA80008F0B8FF26E041796B7C7B4A12F803E026
:101AB8008E4504D00133DBB2052BF6D900236B74B5
:101AC8006B7C90F9000012F803E0744B03EB8E0E68
:101AD8002B681B780C2202FB03A202215378009387
:101AE80000220192DEF860320FF05EFFA860002845
:101AF800CBD1D4E7052000210CF0DDFC41F25533B1
:101B08000025E55441F26833D4F8342AE55441F20B
:101B180054336349E554634BDFF8ACB1C3F824117F
:101B2800C3F82C1141F2743110464FF0010A44F801
:101B380001B084F81CAC84F81D5C84F81E5C84F841
:101B48001F5C84F8205C84F8235C84F8245C84F8A7
:101B5800255C84F8265C84F82D5C83ED4A8A06921D
:101B680005930BF0B1F8069A059B41F27831D9320A
:101B7800C3F8648741F288336250ABF1C802E2507F
:101B880041F28433ABF1BA02E250474C0BF1AC039B
:101B9800C4F894320BF59673C4F89832434B84F822
:101BA8009C520BF5B6721A600BF5C87303CB404A0A
:101BB800516019889B78937233681181D90310603A
:101BC80040F103810DF0C0FB294640F22A3204F2AD
:101BD8009D2084F89CA21AF0AFFE364B364A996ACB
:101BE800506901435161354A1A62DD6216A893F8BB
:101BF80025308DF858308DF859A08DF85BA08DF8F8
:101C08005A500BF063FA182008F06DFE1623837102
:101C18000223C4F8C805C371057204F29D2A284B33
:101C2800DFF8A0E053F8352072454FEAC5019B461E
:101C380002D10B445A7903E001350A2DEFD1002275
:101C48002E210DF005FC00231E4A5BF8331091424B
:101C58004FEAC300904639D1194B034493F80490D6
:101C680037E000BF00000020E18F0008E8050020F1
:101C780091F5000848E80100B98F0008D58F0008E1
:101C8800BD8F0008C98F00083C4F0020484700203E
:101C98008C4F002008100208B8020020FCDC010864
:101CA800000080BF04120020E0160020D04400206D
:101CB800D4440020980100200010024029DF0008C9
:101CC80020120208002C0140DC46002001330A2BB8
:101CD800BAD148460DF09EFBB8F80030D048DFF87E
:101CE800709323F45C731B041B0CA8F800301D23AD
:101CF800C8F82C3000254FF0010B0223A8F8283033
:101D08000AA9A8F830506023C8F814B00A93ADF8AF
:101D18002E500C95ADF83450ADF83650ADF838501B
:101D2800ADF83A50ADF82CB007F0CCFBD8F8183025
:101D380043F00803C8F81830D8F8443043F4004397
:101D4800C8F84430484616F058FE16A816F02AFE81
:101D5800B44B16931023189340F22A33ADF864302D
:101D680080231B934FF480731C9348464FF4005311
:101D780016A91F93CDF85CA01A951D951E95209560
:101D880016F01DFED8F80C3043F40073C8F80C3078
:101D9800D9F8003043F00203C9F80030A24B83F8A9
:101DA80000B0A24B4FF0000825F803802B440435FF
:101DB800FF22802D9A70DA70F3D10CF03DFD0CF003
:101DC8003BFD062041460CF076FB33685A0573D577
:101DD800D4F84C56C4F85056042007F0A1FF04214B
:101DE800C4F8540607F072FF84F858060820C4F8AF
:101DF8005C5607F095FF0821C4F8600607F066FFF7
:101E0800002184F864062C2289481AF095FD8E2357
:101E18002C2200214FF07C0984F866364FF07D08AB
:101E2800E023844884F8683684F8659684F89086B8
:101E38001AF082FD8A2384F892362020A02384F8A1
:101E4800943684F8919684F8BC86C4F8C05607F096
:101E580067FF2021C4F8C40607F038FF84F8C806D5
:101E68001020C4F8CC5607F05BFF1021C4F8D00648
:101E780007F02CFF84F8D4064FF4807007F050FF69
:101E88004FF48071C4F8D80607F020FF84F8DC0608
:101E98004FF40070C4F8E05607F042FF4FF40071A9
:101EA800C4F8E40607F012FF84F8E8060FF0C6FD50
:101EB800072000210CF0FFFA5F4DB5F84490B9F106
:101EC800000F40F083802C2008F00DFD0F23837154
:101ED8000E230D218046C37180F80890C4F8EC06E3
:101EE8000DF02EFB404608F02AFD544B1A8822F0CC
:101EF80040021204120C1A801A8822F038021204C6
:101F0800120C1A801A8892B242F040021A803220CB
:101F18009F238DF828308DF829908DF82A908DF818
:101F28002B9008F062FB40468DF8599008F002FDAE
:101F380004220AA916A80BF00BFE404608F0FFFC85
:101F48009DF85A309DF859201B0243EA02439DF838
:101F58005B2013433A4A934217D00CD8394A93422C
:101F680015D00132934218D0A2F51A42033A93428F
:101F780025D120230CE0344A934208D00132934201
:101F88000BD0324A93421AD101E0402300E080236B
:101F9800A5F844304FF4807303E04FF48073A5F83C
:101FA8004430A5F84630B5F84830B5F844201B024F
:101FB800EB6453432B65012384F8F03606E00023D5
:101FC800A5F84430A5F84630EB642B652B6D002B43
:101FD80040D04FEAD328C2464FF00009C1450BDA7A
:101FE80009EB08056D100DF1580BE802594610224F
:101FF8000BF01AFE0F2806DC0DF0F0FC4FEACA239E
:10200800C4F8F43626E000235BF80320013240F0E0
:10201800C9800433102BF7D1AA46A846DEE700BFD3
:10202800002C0140342C014047500020AC1C0020FB
:10203800451D0020711D00200000002000380040D0
:102048001620C20017BA20001740EF001720C20060
:102058001C0002404FF47A72A4F8FA26C822A4F8A9
:10206800FC26524A3168107840F008001070504A37
:10207800107820F0020011F40023107040F60202DC
:1020880018BF01230A4084F8F8364A4B6AB14A4A15
:10209800C3F80027032283F80427484A0121117056
:1020A8000022A3F80627A3F80827454B1B68984782
:1020B80084F80A0718B94FF0006008F0ABFC414BF0
:1020C800DFF814819B6840483360012500213C22D9
:1020D80088F8FC591AF030FC0023C4F80C373B4C44
:1020E8003B4A2046136007F0C1FCD8F8543A642BE9
:1020F80038BF6423E3632846294607F0EFFC2946E6
:10210800022007F0EBFC2946032007F0E7FC3168C2
:102118008B0754BFC1F3C0212946042007F0DEFC19
:102128000520012107F0DAFC31680620C1F3C0114F
:1021380007F0D4FC39680720C1F3C00107F0CEFCD2
:1021480039680820C1F3800107F0C8FC3968092004
:10215800C1F3001107F0C2FC31680A20C1F3404105
:1021680007F0BCFC31680B20C1F3802107F0B6FCF6
:1021780071880C2001F0010107F0B0FC31680D20D6
:10218800C1F3C06107F0AAFC082000210CF093F904
:10219800104B1A7862F07F021A702BB0BDEC028BDC
:1021A800BDE8F08F05F10109454636E7384F0020B4
:1021B80046500020E016002056460020BE020020AF
:1021C800C0020020E0440020D04D0020D8020020AA
:1021D800CC4D0020C84D0020E80500202DE9F04F27
:1021E800174602890A81D3B25A2BA7B005460C4676
:1021F80000F0B48700F2AF80362B00F08B8658D8F9
:10220800262B00F0AB8525D8042B00F08F8116D83B
:10221800022B00F0708100F27A81012B41F01680C8
:102228000A68511C2160002111702268511C21602C
:10223800137023685A1C2260152200F072BD222BED
:1022480000F0A683242B00F08585052B40F0FE873F
:1022580000238FE12E2B00F070861ED82A2B00F069
:102268008C852C2B00F0A285282B40F0EF87B64DEB
:102278000846B5F87C1108F017FC2046B5F87E1121
:1022880008F012FC236895F88021591C21601A7007
:102298002046B5F8821100F032BF322B00F00086DC
:1022A800342B00F0A383302B40F0D087002500F0BA
:1022B8005DBE452B00F004872FD83D2B00F001832D
:1022C8001FD83A2B00F0A6823B2B00F05C83382BFA
:1022D80040F0BC8722689C4B501C93F87611206014
:1022E8001170226893F87A11501C206011702268CE
:1022F80093F87911501C2060117093F87B2100F03D
:102308000DBD422B00F0DE85442B00F04887402BA2
:1023180040F09C87002300F0C7BD4B2B00F086855A
:102328000CD8472B00F07786C0F05E86492B40F02A
:102338008D87854B0846D98900F0E1BE4F2B00F008
:10234800AB86502B00F08A864D2B40F07F877F4D5F
:10235800002600F08BBD742B00F0C9804ED86B2B83
:1023680000F0438426D8672B00F0A6811BD8652B84
:1023780000F0508100F27981642B40F067870B6888
:102388005A1C0A60E7221A706F4B5A790B68591C5D
:1023980021601A7023686E495A1C226000221A7044
:1023A800204600F034BE692B00F0A38000F2F783CA
:1023B800002507E26F2B00F08E8213D86D2B00F0FA
:1023C800188200F25182634D0846298808F06CFB98
:1023D8006988204608F068FBB5F904100A2391FBC8
:1023E800F3F16AE2722B00F0758300F2CE83702B52
:1023F80008BF002300F0A28200F028BF7E2B00F067
:102408009D8633D8782B00F0668105D8762B00F0AE
:10241800FC836AD900223FE37C2B00F0628600F23D
:102428007286792B40F0128722684B4B501C93F828
:10243800241020601170226893F82510501C206029
:102448001170226893F82910501C206011702268BE
:1024580093F82810501C2060117093F826202368E8
:10246800591C216020461A703C4BCCE3A42B00F089
:102478003B840BD8962B00F09C80A02B00F05C844A
:102488007F2B40F0E386002200F07CBDF12B00F0AA
:10249800678120D8A62B40F0D986314D0846298877
:1024A80008F002FB6968204608F0EAFAA9682046A5
:1024B80008F0E6FAE9682B4D204608F0E1FA2046D4
:1024C800298D08F0F1FA2046A98C08F0EDFA20468B
:1024D800E98C00F014BEF52B00F06686FE2B08BFD1
:1024E800042500F0218400F0B1BE1F4A41E2002516
:1024F800B1E2002570E100231C4A995C226801338F
:10250800501C042B20601170F6D101F006BD0B6839
:102518005A1C0A6001221A700B689A180A60032272
:102528001A700B685A1C0A600022FAE30023104A4A
:10253800995C22680133501C042B20601170F6D17D
:102548002046002100F0DBBDE04400208646002044
:102558003C0000808A200020041E00201424002053
:102568008C4F0020604F0020BBE401088C12020849
:1025780091120208A94A995C22680133501C0B2B5E
:1025880020601170F6D10023A54A995C22680133B6
:10259800501C082B20601170F6D10023A14A995CC9
:1025A80022680133501C072B20601170F6D101F00E
:1025B800B4BC9D4B0846198808F076FA9B4B1988DD
:1025C800204689B208F070FA994B1B68C3F3C00122
:1025D800C3F38002890041EA4201C3F34002114378
:1025E800C3F3401241EAC20103F010031943204625
:1025F80008F05AFA07F0F7FB0146204608F040FABF
:102608008C4B93F894272368591C216020461A7034
:10261800894BF8E2844B0846198808F045FA834B41
:102628001988204689B208F03FFA814B1B68C3F32A
:10263800C001C3F38002890041EA4201C3F34002AA
:102648001143C3F3401241EAC20103F010031943D6
:10265800204608F029FA07F0C6FB0146204608F094
:102668000FFA744B93F8942758E3744B1B89B3F50E
:10267800806F94BF012608260025714BE95891FB0D
:10268800F6F1204689B2043508F00EFA0C2DF4D183
:1026980000256C4B2046595B043508F005FA0C2DD3
:1026A800F7D10025684B2046595B043508F0FCF942
:1026B8000C2DF7D101F031BC644B0A6803F110010D
:1026C80053F8040B42F8040B8B42F9D123681033FA
:1026D800236001F022BC00275D4E0E2533687D4340
:1026E8002B442046B3F8DE1008F0DEF933682B449B
:1026F8002046B3F8E01008F0D7F933682B44204699
:10270800B3F8E21008F0D0F933682B44204693F868
:10271800E4202368591C21601A7033682B44013760
:1027280093F8E5202368591C21601A7033682B44FC
:1027380093F8E6202368591C21601A7033682B44EB
:1027480093F8E7202368591C21601A7033681D44E8
:10275800D5F8E81008F094F9082FBDD101F0DDBBD9
:10276800344B03F16001226893F8D400551C2560AE
:102778001070226893F8D500551C256010702268E7
:1027880093F8D600551C25601070226893F8D7007E
:10279800551C25601070226893F8D800551C2560D8
:1027A8001070226893F8D900551C256010702268B3
:1027B8000633501C20608B424FF000001070D2D1BD
:1027C80001F0ABBB234B2046595B023508F06CF98E
:1027D800102DF7D101F0A1BB1F4B1B789D4281F052
:1027E8009C831E4B204633F8151008F05DF901351F
:1027F800F2E71B4D95ED420A1AF0C6FA014620464B
:1028080008F03EF995ED450A1AF0BEFA81B2204665
:1028180000F075BC0846134B9AE200BF96120208F6
:10282800A2120208AB120208CC4F0020041E00209E
:10283800344F0020E044002098200020043F00206E
:10284800241F0020E81F0020081E0020A00C0020E4
:102858001C100020F0250020F01100203611002067
:102868000412002068400020934D0A682B8A511CEE
:10287800FF2BA8BFFF232160137069694FF6FF760D
:10288800B142A8BF314621EAE171204689B208F079
:102898000BF92046298B08F007F9884B93F881310A
:1028A80043B1EB690A215943B142A8BF314621EA35
:1028B800E17102E0E96901F30F01204689B200F0F5
:1028C8001EBC22687D4B501C93F8EA1120601170E1
:1028D80093F8E92122E20B685A1C0A6064221A70F4
:1028E800774A136819782368581C206016461970AF
:1028F800002331682268724D19440133C978501C8D
:10290800032B20601170F4D12B689A792368591C25
:1029180021601A702B685A782368591C21601A7034
:102928002B689A782368591C21601A702B682046F6
:10293800198908F0B9F82B68DA79EFE1614A11686A
:10294800C85C21684D1C2560087011681944887A94
:1029580021684D1C2560087012681A440133117DE6
:1029680022680A2B02F1010020601170E6D101F003
:10297800D4BA12F8013F002B01F0CF822168481C1D
:1029880020600B70F5E70B685A1C0A600222C8E148
:1029980000224C4B02F110001B6803EB800113F876
:1029A8002060002348481D18185CB04205D00C333D
:1029B800B3F5A27FF6D1002000E0287A23685D1CD9
:1029C80025601870236848785D1C25601870236896
:1029D80088785D1C256018702368C9780132581CF6
:1029E800142A20601970D4D101F097BA0022354B0F
:1029F80020681B680621514390311944461C8D7983
:102A08002660057048784B1C21684D1C25600870AD
:102A1800216858784D1C25600870216898784D1CED
:102A2800256008702168D8784D1C256008701979D0
:102A380023680132581C0C2A20601970D7D101F084
:102A48006CBA214A9E189A5C8A420DD00C33B3F5B1
:102A5800A27FF6D101351D4B1B789D4281F25D8224
:102A68001B4BE95C0023ECE7706819F0A5FF002315
:102A78008342EFDA7268D15C2268571C2760013301
:102A88001170F5E710495818595CA9420DD00C335C
:102A9800B3F5A27FF6D101320C4B1B789A4281F034
:102AA8003C820B4BD55C0023ECE72368017A581C69
:102AB80020601970EFE700BF041E0020E0440020EA
:102AC800642000201C100020ECE40108661000209F
:102AD8004C100020AA4D0846B5F89A1107F0E4FFFB
:102AE8002046B5F8341107F0DFFF2046B5F8361157
:102AF80007F0DAFF2046B5F8381107F0D5FF204671
:102B0800B5F8E01107F0D0FF236895F8F621591CB5
:102B180021601A7023685A1C226000221A702368E8
:102B280095F8F711581C20601970236895F88111E1
:102B3800581C20601970236895F89711581C20605C
:102B480019702368591C21601A708E4B1B68B3F9E1
:102B58003E100A2391FBF3F189B2204607F0A4FF47
:102B6800236895F87621591C21601A70236895F816
:102B78007A21591C21601A70236895F87921591C0B
:102B880021601A7095F87B21C8E001232268511C46
:102B9800216013700133092BF8D101F0BEB97A4DC9
:102BA8000B682A79591C21601A7023686A79591CA4
:102BB80021601A702046A96807F062FF2046E9687C
:102BC80007F05EFF2B69642293FBF2F1204689B27D
:102BD80007F06AFF2046298C07F066FF2046698CBB
:102BE80007F062FF2046298D89E2684D0846298C46
:102BF80007F05AFF2046698C07F056FF624B1A7897
:102C0800C2F300028AE0198879E203685A1C02605C
:102C180093F800B0BBF1000F0AD15D4B1D7815F099
:102C2800010531D05B4B93E80204D3F808900BE020
:102C3800BBF1FF0F0DD106A9574815F0A3F9069966
:102C4800DDF81CA0DDF820900025A5262F46A84613
:102C580023E00BF1FF33DAB23B2A17D84F4A92F937
:102C680039178B4512DC1821594301F5CC718B18A3
:102C78008A5CD3F808A05968D3F80C90B3F8108090
:102C88005F8A9D8A9E7D09E0A52601E0A52600258C
:102C98002F46A846A946AA46294604222368581C56
:102CA800206083F800B02368581C20601A70204602
:102CB80007F0E6FE2046514607F0E2FE2046494668
:102CC80007F0DEFE2046414607F0EEFE2046394674
:102CD80007F0EAFE2046294607F0E6FE23685A1C5C
:102CE80022601E7001F019B90B685A1C0A60012293
:102CF8001A700B689A180A6000221A700B68591C1F
:102D080021601A70204A2168108D6423B0FBF3F00B
:102D18004D1C25600870128DB2FBF3F22368591C14
:102D280021601A7001F0F9B82046002107F0BCFEB6
:102D3800013DF9D101F0F1B8194B0846196807F0BF
:102D48009FFE184B2046196807F09AFE164B20463E
:102D580019685CE10A4B0846996858E1084D08462D
:102D6800B5F84E1107F0A0FE2046B5F8501107F04F
:102D78009BFE2046B5F85211C1E1014B5A79CDE7C7
:102D8800E04400201C100020604F0020041E00209A
:102D9800384F00201444002004130020041200209F
:102DA800ACF7FF1FB0F7FF1FB4F7FF1FB64D0B6856
:102DB80095F88C21591C21601A702046B5F89E118F
:102DC80007F072FE2046B5F89A1107F06DFE20460E
:102DD800B5F89C1107F068FE236895F89521591CF1
:102DE80021601A702046B5F8A21107F05DFE204652
:102DF800B5F8A41107F058FE236800215A1C226078
:102E0800197023685A1C22602046197007F04CFE7E
:102E1800236895F88E21591C21601A702046D5F830
:102E2800901107F02DFE95F8942177E70B68964DE1
:102E3800591C95F8DE2121601A70236895F8DF2166
:102E4800591C21601A702046B5F8E01107F02CFED5
:102E5800236895F8E221591C21601A702046B5F8BC
:102E6800E41107F021FE95F8E62157E7874B1B7818
:102E78009E4205F1020581F05080236815F8022C66
:102E8800591C21601A7015F8011C01EB810101EB36
:102E98008101204601F2EE2107F006FE0136E5E742
:102EA800794B93F8972139E7774A1A44013392F816
:102EB80084112268082B02F1010020601170F3D1FF
:102EC80001F02BB8704D0B686A79591C21601A7093
:102ED8002046A96807F0D4FD236895F88C21591C71
:102EE80021601A702046B5F84E1107F0DDFD204626
:102EF800B5F8501107F0D8FD2046B5F8521107F083
:102F0800D3FD2046B5F87C1107F0CEFD2046B5F874
:102F18007E11F4E05C4D05F1280695F86A2200233D
:102F28005B49C95C8A4201F001800C333C2BF7D124
:102F38000835B542F1D100F0F0BF534D05F1400618
:102F4800B5F82813204607F0AFFD236895F82A2323
:102F5800591C21601A70236895F82B230435591CD5
:102F6800B54221601A70EBD100F0D7BF464B2B4415
:102F78002046D3F8A812043507F082FD802DF5D13C
:102F880000F0CBBF4049062505FB02150023206849
:102F9800461C266002702068461C26600370E818EC
:102FA800013390F868632068062B00F10107276059
:102FB8000670ECD10132062AE4D100232268501CA5
:102FC8002060062010702268501C20601370CA18F8
:102FD800013392F88C0322680B2B02F1010525605E
:102FE8001070EBD100F099BF0AF0E8FD2368294D75
:102FF8005A1C226018702988204607F041FDE968AC
:10300800204607F03DFD13F003F90146204607F07E
:1030180037FD00F082BF07F00DFD05462946204622
:1030280007F02EFD1B4BDF6805F18003BB428CBF08
:10303800C5EB0707802706AE0CF0D0FC28463146C2
:103048003A460AF0F1FD0023834280F2668722683F
:10305800F15C551C256001331170F5E70B685A1CAB
:103068000A6001221A702268074B501C93F8B617A1
:1030780020601170226893F8B417501C20601170FA
:1030880093F8B5274AE600BFE0440020F01100207D
:10309800500C0020440000200B6800255A1C0A60D0
:1030A8001D700B685A1C0A601D700B685A1C0A6058
:1030B80008461D70294607F0E3FC20462946A6E786
:1030C8000023BE4A995C22680133501C0B2B2060F8
:1030D8001170F6D12046002107F0D2FC20460021CD
:1030E80095E7B74D0846B5F8421107F0DDFC2046D4
:1030F800B5F8441107F0D8FCB5F84611204607F09A
:10310800D3FC00F00ABFAF4B1A6892F8D9102268B6
:10311800501C206011701A6892F8DA102268501C4E
:10312800206011701B6893F8DC202368591C21600B
:103138001A70A34B2046B3F84811E0E72268A04B69
:10314800501C93F84A1120601170226893F84B11B3
:10315800501C2060117093F84C21DFE50B68984DE6
:10316800591CAA7C21601A7023685A1C226001220B
:103178001A702368991821601A70236895F83C2101
:10318800591C21601A702046B5F83A1107F08CFCDA
:103198002046B5F8401107F087FC6A7CBEE5002F91
:1031A80000F0BB86884B4EE08848894D0021C0223C
:1031B80019F0C2FB4FF000084646A94699F80230BC
:1031C800984535DA6B7ADB072ED52A7A814B33F9A5
:1031D8001230002B28DDEB68187907F084FB7E4A53
:1031E80001464FEA061C02EB0C000B688988C36293
:1031F8004186002301209840084001D0184602E08B
:103208000133102BF6D1624402F13403518E9186BA
:10321800022182F83710042182F836101086526B8A
:103228005A6001229A71164408F101080835C5E769
:10323800694B83F8EC6023685A1C22601E70002FCB
:1032480000F06B86654B3B6000F067BE95E8440074
:10325800512B4FF00007C2EB060600F09D834AD8B9
:10326800352B00F04B8121D82B2B00F0E7840ED8AA
:10327800252B00F09A8403D8232B00F00F81B7E0A8
:10328800272B00F09A84292B00F0C184B0E02F2B63
:1032980000F0F08503D82D2B00F0DE84A8E0312B58
:1032A80000F00086332B00F06F85A1E0412B00F081
:1032B80072850ED8392B00F0918403D8372B00F093
:1032C800A18595E03C2B00F054863E2B00F0B88099
:1032D8008EE04A2B00F0C28006D8432B00F06785A9
:1032E800482B00F0718383E04C2B00F004854E2BB3
:1032F80000F024857CE0D22B45D023D8CC2B00F0DD
:103308002D810DD8C82B6FD003D85B2B00F0FD8220
:103318006EE0C92B00F05B83CA2B00F0A68067E043
:10332800CF2B00F06E8106D8CD2B00F01B83CE2B5F
:1033380000F022835CE0D02B00F00883D12B00F052
:10334800878355E0DA2B00F065820AD8D42B00F089
:10335800D1812CD3D62B00F0B581D92B00F0448233
:1033680046E0DD2B00F0B18506D8DB2B00F0668245
:10337800DC2B00F0B8823BE0F22B00F00282FA2B43
:1033880000F0058334E0164B1B7803F0040303F0C8
:10339800FF01002B40F0ED85531C2B601278084B81
:1033A800022A94BF83F8942783F89417D5E2284615
:1033B80007F056FB0B4B188000F0DBBD9612020895
:1033C800E04400201C10002025770108301E002052
:1033D800140D0020F0250020041E00202D430108B4
:1033E8004650002014240020C6F34706122E02D9A6
:1033F800FF2000F090BDB74207D2284607F030FB07
:1034080006AB23F817000137F5E70023B342B24AA9
:1034180006DA06A931F8131022F813100133F5E77C
:10342800013E02EB46062232964203D0002326F8DC
:10343800023FF9E7A94B012083F8120100F06BBDA8
:10344800531C2B60A64B127883F8EA212A68511C7A
:103458002960127883F8E92100F08BBD284607F02F
:10346800FFFA9F4BD88100F084BD9E4B1B68002259
:10347800013B2968481C2860097803F8011F29685E
:10348800481C2860097899722968481C286001320C
:10349800097819750A2AECD100F06BBD531C2B6012
:1034A8001678132EA4D88F4B1968931C2B608E4B5B
:1034B80092F801C0103601EB860003F5A27793F865
:1034C8000880E04503D00C33BB42F8D190E71B7865
:1034D80001F82630D31C2B60937843702B685A1C54
:1034E8002A601B7883702B685A1C2A601B78C3706B
:1034F80001F1400015F00EF900F03BBD531C2B60A4
:1035080013780B2B3FF674AF06214B437549901C7B
:1035180009682860527890331944032A01F101039D
:103528003FF666AF8A712A68501C286012784A7084
:103538002A68511C296012785A702A68511C29601F
:1035480012789A702A68511C29601278DA702A68F1
:10355800511C296012781A7100F00BBD092E7FF6F4
:1035680047AF284607F087FA2A68604B511CD3F802
:1035780000802960127888F8002099462B685A1C28
:103588002A60022F1B7809D1012B03DDB42BA8BFB9
:10359800B42300E03B4688F8053009E0052B03DD3D
:1035A800B42BA8BFB42300E0062308EB0702D370AE
:1035B8000137032FE2D12B685A1C2A601B78642B31
:1035C800A8BF642388F806302B685A1C2A601B7829
:1035D80088F801302B685A1C2A601B7888F802305A
:1035E800284607F03DFA0A2EA8F8080000F0C18422
:1035F8002B68D9F80020591C29601B78D37100F07A
:10360800B8BC284607F02CFA6FF4AF67C319344EDC
:103618009BB2C62B98BFA6F89A01284607F020FA55
:10362800A6F83401284607F01BFAA6F83601284602
:1036380007F016FAA6F83801284607F011FA2B68A1
:10364800A6F8E0015A1C2A601B7886F8F63128464D
:1036580007F011FA2B685A1C2A601A46284612F8F5
:10366800021B86F8F7112A605B7886F881312B688F
:103678005A1C2A601B7886F8973107F0FCF9194B19
:1036880028461F6807F0ECF92B6800EB80005A1CED
:103698004000F8872A601B7886F876312B685A1C18
:1036A8002A601B7886F87A312B685A1C2A601B78A6
:1036B80086F879312B685A1C2A601B7886F87B318A
:1036C80000F057BC284607F0CBF9094BD85302370E
:1036D800102FF7D100F04DBCF21E0020041E002070
:1036E800E04400201C100020ECE4010864200020C5
:1036F800082600200F2E7FF47BAE531C2B60177812
:10370800072F3FF675AEB64E2846D6F8008007F06C
:10371800A7F90E235F4308EB0703D6F80080A3F848
:10372800DE00284607F09CF908EB0703D6F800806E
:10373800A3F8E000284607F093F908EB07032A6886
:10374800A3F8E2003368511C29601F44127887F8F7
:10375800E4202A68511C2960127887F8E5202B6834
:103768005A1C2A601B7887F8E6302B685A1C2A6096
:103778001B7887F8E730284607F05CF9C7F8E800B7
:10378800F7E3531C2B6011780F293FF631AE931CD9
:103798002B60944B5278062000FB0133284683F8AF
:1037A800D4202A68511C2960127883F8D5202A6809
:1037B800511C2960127883F8D6202A68511C296088
:1037C800127883F8D7202A68511C2960127883F868
:1037D800D8202A68511C2960127883F8D92007F06C
:1037E8004AF906F0C3FBC4E3284607F039F97D4ED1
:1037F800A6F84201284607F033F9A6F844012846FE
:1038080007F02EF9A6F84601284607F029F9A6F888
:103818004801AEE3724B511C1B682960127883F88B
:10382800D9202A68511C2960127883F8DA202A687E
:10383800511C2960127883F8DC209AE3684B1B68D6
:103848004FF0050C1722412583F810C04FF0080CE3
:103858001A755A751D715522782583F81AC04FF0CC
:10386800140C1E219A709D732D22B42583F807C06D
:103878004FF04B0C28200A269972D9721A735D7181
:1038880032220F254FF0640883F81BC083F82410F8
:103898004FF03C0CC821DA70DA74187058709F75B4
:1038A8005F73DF751E76DD7383F819809E715D7412
:1038B80083F808C083F809805E7783F8215083F87D
:1038C80020C09877D9841A8542F21072DA624FF4D0
:1038D80096725A845A219A86DA86A5221F6383F83B
:1038E80038105A8745E31146531C2B603D4B11F89D
:1038F800020B83F84A012960517883F84B11D11CD7
:103908002960927883F84C2133E3531C354E2B60A1
:103918001378B374284607F0AEF8284607F0ABF8DA
:103928002B685A1C2A601B7886F83C31284607F019
:1039380097F8A6F83A01284607F092F82B68A6F8F7
:1039480040015A1C2A601B78737412E3264B1B78BB
:103958005E0700F10E8310F0E7FC0BF03BFC0BF068
:103968000FFA06E3204B1B785D0700F102831F4B1B
:103978004FF4C8721A80FCE21B4B1B78580700F101
:10398800F8821B4B1A7842F004021A70F1E2164BC7
:103998001B785907E1D52BE5164B1B78012B00F254
:1039A800B982531C2B600F4B127883F8B6272A680C
:1039B800511C2960127883F8B4272A68511C2960A1
:1039C800127883F8B527D4E20DF034F9D1E2531C0C
:1039D8002B601178064B79B1197841F002010EE09D
:1039E8001C100020E044002046500020301F00201A
:1039F800384F0020D81D0020197821F00201924E7E
:103A08001970337803F0F9036FF304133370931CC0
:103A18002B6053787371284607F00CF8B06028467D
:103A280007F008F8F060284607F01AF830612846D1
:103A380007F016F8002330847383B383F3832020C0
:103A48006423B384F38406F0DDFF09F037FD90E2C8
:103A5800531C2B601346284613F8026B2B605778CB
:103A680006F0E8FF01462846009106F0E3FF83468A
:103A7800284606F0DFFF8046284606F0F1FF82461A
:103A88001FFA80F9284606F0EBFF84462846CDF851
:103A980004C006F0E5FF2B680099DDF804C05A1C45
:103AA8002A601D780391CDF810B0CDF81480B6B90E
:103AB800664B1B785A0741D5654B1A7A002A3DD0C8
:103AC80093F85C31002B39D003A806A9012214F021
:103AD800DFFA06A83146072214F0ACFA49E2FF2EB5
:103AE8002CD1012F2AD1594B1B785B0726D5584B6F
:103AF8001A7A1AB393F85C2102B39A7BF2B11B7855
:103B080003F0FD03052B19D103A806A93A460AF1CB
:103B1800FF3A14F0BDFA1FFA8AFAB8F1000F14BF81
:103B2800032201226421BAF5B37F98BF42F0040250
:103B380019FB01F106A80BF0DFFE1AE2731EDAB2D8
:103B48003B2A00F21682414A1278520700F111828C
:103B5800012F02D0042F40F00C823D4A92F939A778
:103B68000AF1010A564502D0012E40F002824FF0B8
:103B7800180A0AFB03FA0AF5CC7A02EB0A0302F8E0
:103B88000A709D755960C3F808B0C3F80C80A3F893
:103B98001090A3F812C09882B5F1A5035D425D416B
:103BA80082F8396782F83857E3E12A4B28469F6044
:103BB80006F040FF06F036FFDBE1284606F050FF2E
:103BC800244EA6F84E01284606F04AFFA6F85001F2
:103BD800284606F045FFA6F85201CAE1531C2B609F
:103BE8001C4B127883F876212A68511C29601278B8
:103BF80083F87A212A68511C2960127883F8792180
:103C08002A68511C2960127883F87B21B1E1284683
:103C180006F026FF0F4EA6F87C01284606F020FF86
:103C28002B68A6F87E015A1C2A601B7886F880311A
:103C3800284606F015FFA6F882019AE1531C2B606E
:103C4800044B12785A7194E1604F002046500020CE
:103C580004120020E0440020531CB34F2B6013785B
:103C680087F88C31284606F0FBFEA7F89E01284607
:103C780006F0F6FEA7F89A01284606F0F1FE2B6832
:103C8800A7F89C015A1C2A601B7887F89531082EE2
:103C980040F26F81284606F0E3FEA7F8A201284605
:103CA80006F0DEFE0C2EA7F8A40140F26281284639
:103CB80006F0E1FE284606F0DEFE284606F0D0FEB5
:103CC800102E40F256812B685A1C2A601B7887F800
:103CD8008E31112E00F04D81284606F0ABFE152ED0
:103CE800C7F8900140F245812B685A1C2A601B785E
:103CF80087F894313DE1531C2B608B4E137886F87E
:103D0800DE312B685A1C2A601B7886F8DF3128467A
:103D180006F0A6FE2B68A6F8E0015A1C2A601B785C
:103D280086F8E231284606F09BFE2B68A6F8E401E7
:103D38005A1C2A601B7886F8E6311AE1531C2B605E
:103D48001678112E3FF654AB774F931CD0362B6064
:103D580007EB460352789A71284606F081FE40F236
:103D6800ED23984205DD40F6CA039842A8BF1846DD
:103D780001E040F2EE2007EB4606A0F2EE20192300
:103D880090FBF3F0F071F4E0531C2B60664B127853
:103D980083F89721EDE02B685A1C2A601A78624B49
:103DA8003B440137082F83F88421F4D1E1E0531C08
:103DB8005D4E2B60137873712846B76006F03AFEA3
:103DC80006F030FE2B685A1C2A601B7886F88C3166
:103DD800284606F045FEA6F84E01284606F040FEA5
:103DE800A6F85001284606F03BFEA6F852012846E0
:103DF80006F036FEA6F87C01284606F031FEA6F845
:103E08007E01B6E00723B6FBF3F3C3EBC302964289
:103E18007FF4EEAA5FFA83F90027FBB2994500F018
:103E2800A8802B685A1C2A6093F800804FFA88F003
:103E380005F038FF0137064600283FF4D9AA80F874
:103E48000080284606F00CFE2B6870805A1C2A60F9
:103E58001B7833712B685A1C2A601B7873712A6887
:103E6800531C2B601378F3712A68531C2B6013784A
:103E7800B371D2E72C4E06F14007284606F0F0FD54
:103E8800A6F828032B685A1C2A601B7886F82A3360
:103E98002B685A1C2A601B7886F82B330436BE42DE
:103EA800EBD166E0531C2B6017781F2F3FF6A0AAB2
:103EB800052E7FF49DAA284606F0BCFDAA371A4BAA
:103EC80043F827000BF040FA53E0531C2B601346CD
:103ED800D01C13F8021B2B605378286092780F2AA5
:103EE8003FF686AA05290AD8052B3FF681AA0E486F
:103EF800062505FB01010B4483F8682339E00629F0
:103F08007FF476AA0A2B3FF673AA07490B4483F875
:103F18008C232EE0384640B200E00120608140B298
:103F280027B0BDE8F08F00BFE04400202368591C8B
:103F380021601A70B5F86C12204606F0B5FD2368AA
:103F480095F86E22591C21601A70236895F86F2223
:103F5800591C21601A70236895F87122591C216038
:103F68001A70236895F87022591C21601A70FEF7A0
:103F7800DFBF0120CFE700BF2DE9F04F524A136899
:103F88002DED068B5E6A514B597C97B015469946C4
:103F9800F1B92B689FED4E8A9A8C4E4B4E4C1A8085
:103FA80005EE902A4D4AF8EE657A126867EE887A2F
:103FB8009607C4ED007A40F19B810FE006F0C1FA44
:103FC800474B62691B68F31A184464329042E0D286
:103FD800444CE36898470028F0D0DAE7424F201DA8
:103FE8007B689847002800F08081B4F90430E360CA
:103FF800B4F906302361B4F9083063613B4B1B7890
:104008003BB9B4F81880344BB8F1000F00F0438185
:1040180013E00025364E3748A95905EE901AC5EB2E
:10402800C5031844B8EEE50A11F082FD18F0ACFE9D
:10403800705104350C2DEDD1E3E75E69DD6886EA41
:10404800E672A2EBE67285EAE570A0EBE5708242C3
:1040580009DD19690029B8BF49428A4203DD002EEB
:104068001ADC012649E0216981EAE173A3EBE173D7
:10407800984206DD904204DD002DCCBF02260326BF
:104088003BE0834240F30781934240F304810029D7
:10409800D4BF0526042630E0B8F5C87F2CD11C33E0
:1040A80000220D4800F16401002656540132062A08
:1040B8001E605E609E6003F10C03F2D1C66670302C
:1040C80006F067FF19E000BF184E0020E04400200A
:1040D800BD378635CC4F0020181F0020344F0020F4
:1040E800BC4F002028100020043F00208C3F0020F7
:1040F800241F0020903F0020002604EB060AC94D2B
:104108009AF86430FBB905F1700005F10C0106F06E
:10411800B3FE0C2303FB0656EB68F2691344F36104
:10412800326A2B6913443362726A6B69B8F1010F02
:104138001344736207D1EB6E8AF86480013302205E
:10414800EB660DF08FF9E36E062B40F0A180B648C0
:1041580009A906F074FE002509A800EB850393ED74
:10416800000AD4F8C06018F00FFE26F815000135D3
:10417800032DF1D1AC4806F00CFFB6F90050B6F9A2
:1041880002E0B7F808A0B6F90460A84B0022186846
:1041980099684FF4C87790FBF7F0401B0C9058686B
:1041A80090FBF7F0CEEB000091FBF7F10D909E4FDE
:1041B8005010891B00F1010C0E9107EB0C1C00211B
:1041C80040370DF1300805EE90AA51F8088007EE47
:1041D800908AB8EEE57AF8EEE77A0431C7EE877A86
:1041E8000C299CED007AA7EEA77AACEC017A97ED42
:1041F800007AA7EEA77AA7EC017AE2D104EB0011C6
:1042080091ED237AF7EE007A37EE277A04EB8000F7
:1042180081ED237A90ED1C7A37EE277A013280ED12
:104228001C7A94ED1F7A77EE277A062AC4ED1F7A56
:1042380003F10C03ABD17E480FA9A0F1100206F0E0
:1042480053FD9DED0F0A18F0F3FF8DED090A9DED62
:10425800100A18F0EDFF8DED0A0A9DED110A18F00D
:10426800E7FF00258DED0B0A16A800EB850313ED7B
:104278000D0ADFED707AD4F8C46020EE270A18F032
:1042880083FD26F815000135032DEDD115F0BAFA96
:10429800238B013B2383D4F8C010D4F8C420B1F990
:1042A8000000E3681B1AB2F9000058434FF480532A
:1042B80090FBF3F0E060B1F902502069401BB2F9BD
:1042C8000250684390FBF3F02061B1F90400616982
:1042D800B2F90420091A514391FBF3F3636156487C
:1042E800564B01461A7805F025FB012384F8C8309F
:1042F80006F027F9524ED4F8CC3004930746C4F898
:10430800CC007368474D0CA89847002800F0DE8061
:10431800BDF93030C5F8D030BDF93230C5F8D430E9
:10432800BDF93430C5F8D830464B1B7805F1D00AB2
:104338007BB9454BDFF818B11B88002B00F0B5801E
:10434800D4F8DC301B78ABF1480508EE903A00262B
:1043580036E000255AF805603C4805EE906AC5EB42
:10436800C5031844B8EEE50A11F0E2FB18F00CFD9D
:104378004AF8050004350C2DECD1DAE783595AF8D0
:104388000620134483512B6905EE902A0133012B33
:10439800F8EEE57A2B611DD10023C5ED017AC5ED54
:1043A800007AAB602A48DFF8A080002301294AF888
:1043B8000630335029D004360C2E05F1140569D087
:1043C800214B24481988B1F57A7FD7D1002383512E
:1043D8002B61D3E795ED006A05EE903A77EEC66A51
:1043E800B8EEE57A86EE877A36EE077A37EEC76A50
:1043F800D5ED027A85ED017AE6EE867A85ED007ACA
:10440800C5ED037AC5ED027ACCE72969012925DDD6
:10441800013900EE101AD5ED037AB8EEC00A87EE1E
:10442800800A1DE0181F0020881F0020341F00206C
:10443800981F002000008045241F00204C510020B8
:1044480028100020313F0020DA1D0020343F0020D2
:104458004020002034200020000000001FED020A48
:1044680018F0E6FE18EE900A48B1F8EEE87AB4EED5
:10447800E70AF1EE10FA02DD4FF47A7113E0AE4963
:1044880071584FF47A7001F5FA7191FBF0F14BF81D
:10449800061090E7B8F80000012801D10CF0BAFD29
:1044A800B8F800100139A8F8001000205AF80010D8
:1044B8005BF80030CB1A4AF8003004300C28F5D1EC
:1044C8009E489F4B01461A7805F034FA9D4B1968AF
:1044D8008D0762D594F8C830002B5ED09A4B93EDC7
:1044E800007A0023994AD018643A9A5807EE902A1D
:1044F800F8EEE77A043367EE877A0C2BC0ED007A82
:10450800F0D1934BDFED937A1B8907EE103AB8EEA2
:10451800C77A002287EE877A8F4B03F10C00105878
:1045280007EE900AF8EEE77A8C4867EE877A10442F
:10453800C0ED007A981804320C2AC0ED507AEBD1FD
:10454800874A1278D0061DD58E061BD5950719D532
:10455800844A5179042915D9B2F92020D3ED4F6A3C
:10456800D3ED517A07EE102AB8EEC77AE7EE667AED
:10457800D3ED4E6AC3ED517AD3ED527AE7EE267A3F
:10458800C3ED527A049BFF1A05EE907AB8EE650ADD
:1045980020EE080A0FF05AFB03E00023E3602361D2
:1045A8006361DFF8D481D4F84C61D8F800A096F89C
:1045B80000B06D4D9AF8D970B5F900003A465946E1
:1045C80008F0C2FC3A460390A4F850015946B5F9E0
:1045D800020008F0B9FCA4F85201F1799AF8DA203F
:1045E8000746B5F9040008F0AFFCB5F90620B9F89C
:1045F8009C3140429A42A4F8540105DBB2F5FA6FA7
:10460800A8BF4FF4FA6200E01A46D21A4FF47A7142
:104618004A43C3F5FA63B2FBF3F3642093FBF0F269
:1046280004EB42016FF0630E0EFB023304EB42020F
:10463800B1F85811B2F95AE1474D0AB2C2EB0E026D
:10464800534393FBF0F0B4F8703101445806A4F8D2
:10465800561136D5B5F97621DFED447A0A2392FB57
:10466800F3F3B5F878219B1A1BB209EE103AB8EEAD
:10467800C99A29EE279AB0EE490A11F051FAF0EEDC
:10468800408AB0EE490A11F0E9F906EE107A9DED7C
:10469800037AF8EEC66AF8EEC77A20EE667AA7EED5
:1046A800A87A67EE807ABDEEC77AE6EEA87A17EEAA
:1046B800103AFDEEE77AA5F8503117EE903AA5F8D2
:1046C80052312B4D2B78590703D5012006F094FC65
:1046D8006FE0D4F87C61F2075CBF43F001032B70F4
:1046E8001F4B1F783B0703D42B7823F001032B7053
:1046F8000CF0D0FB18B9B4F88031632B06D902232B
:1047080084F882312B7823F001032B70194AD2F8F0
:1047180058375B78002B3CD094F883312BB90E497D
:10472800D1F88411097A022929D1137A33B307F011
:10473800010383F0010322E034200020E81F002059
:104748004D510020344F0020241000204C20002020
:10475800043F00208F2A7544181F002040100020B5
:10476800384F0020604F00203611002035FA8E3C6B
:1047780046500020041200201C1000200123297834
:104788004F0702D4B44A324002B913B121F00101F3
:1047980029702B78D8074CBF0023022384F8823174
:1047A80005F0CFFED4F88831C01A002801DB08F0E4
:1047B800BBFCAA4883680BB1A948984799F8A0316F
:1047C800002B6BD0A74BA84F1E8894F88F3194F814
:1047D8008E514BB9A14B07F5C8705A69012113F0E6
:1047E800ABFE012387F88F31A04FDFF87C823F882A
:1047F80000EE107A08F5C870B8EE400A11F098F982
:10480800BCEEC00A10EE101A89B2B6FBF1F14F1CCB
:10481800BFB2A4F8AC7105B3B8F8AEA10023924AB0
:1048280002F5A87002F5D8761D5A33F8068002F50D
:10483800DC7018FB0AF833F800E01D520FFA87FC09
:10484800CEEB050E98FBFCFCF44423F806C00233BB
:10485800082BE4D1A2F8AE1104E0B8F8AE31013B60
:10486800A8F8AE31B4F8AE117F4A0BB2002B4FF066
:10487800000311DDB2F9AC617D4A9D5AA2F16000D6
:10488800083215FB01F59A5A95FBF6F5521B1A5298
:104898000233082BF0D101E0A2F8AE3194F88E2152
:1048A800714B744FDFF8E881734D002A00F0A48142
:1048B80098F80020510709D42B7A83B305F5807046
:1048C800D5F81811072213F0B5FB28E0D3F87C219E
:1048D800D20215D5B3F8703123F47E6323F00F03A9
:1048E800DB04DB0C63B92B7A53B13B78D5F818118C
:1048F800DE0705F580704CBF0522072213F09AFBEE
:104908003B78DA070BD55D4811F020FBC5F890011C
:104918005A480AF0C1FFC5F8940113F071FB2B7ACD
:1049280013B13B7803F00103DB0709D594F8C031D4
:1049380033B90E200CF06EFB4B4B012283F8C021DB
:10494800AB7B33B1D4F87C319E0202D44A4B0122AE
:10495800DA73D4F87C21444BDFF81CA1C2F3405130
:10496800C2F3C052A9732A74029311F0A9FB09F08B
:104978003FFC2978424A029B02EB4112568916F401
:10498800806F00F08780B3F87021500500F18280B5
:104998003A7802F0100202F0FF0B12B3DAF85C2743
:1049A800B3F9520192F803B0594606F004FB80B2FD
:1049B80000284FD0DAF858379FED327AB3F84A30EA
:1049C80000B2404206EE10BA584305EE900AF8EEDF
:1049D800C67AB8EEE50A77EE677A012080EE270AF4
:1049E8002BE0294AB3F856311188DAF85C275B1AAC
:1049F8001BB2D27883EAE370A0EBE370904220DD2B
:104A0800DAF85827B2F84A20002B09B202FB03F360
:104A1800DAF86C2708DD5288511A93FBF1F106EE9B
:104A2800901AB8EEE60A07E01288891A93FBF1F1AA
:104A380007EE101AB8EEC70A022007F09BFF012004
:104A480008E09AF80C0028B102209FED100A07F040
:104A580091FF584628731FE0000304002810002027
:104A6800A4200020A4110020181F0020CC4F0020F3
:104A7800C8200020384F00200412002074130020A2
:104A880030E601080000FA4354000020000000004E
:104A98004650002000232B73F1047AD5B4F8703106
:104AA800DFF878A35A0574D43B7813F0100FD5F8C3
:104AB8005C3709D0BAF95001997806F07CFA00B24F
:104AC800021C18BF012262E09B78BAF952010293D6
:104AD800194606F070FA029B1FFA80FB1946BAF9CC
:104AE800500106F068FACC4B1FFA80FABBF1000FB0
:104AF80002D1BAF1000F3DD0D5F858178A78012AAB
:104B080044D1B1F84800D3ED476A93ED055A0FFA3E
:104B18008BFB0FFA8AFA00FB0BFB4FF4FA7100FBD0
:104B28000AF09BFBF1FB90FBF1F007EE90BA05EE63
:104B3800900AB8EEE76AF8EEE57AD3ED485A26EE21
:104B4800E77A67EEA57AA6EE257AE6EE267A87EE6C
:104B5800057A93ED405A35EE077A83ED4D7A93ED59
:104B6800067AC7EE877A93ED417A77EE277AC3ED16
:104B78004E7A0CE0DA7A52B10FA811F0C1F901228D
:104B88000FA851460AF0B8FE524600E00122EA7228
:104B980001E00023EB72B3041BD5B4F8703103F4C1
:104BA80080639BB2ABB93A7802F0100292B99B4B82
:104BB800D5F85C17B3F954618B78974A002EB8BFC3
:104BC80076429E4205DDD2F81831C2F84C310123F5
:104BD80000E000232A786B73914B03EB421341F2F8
:104BE80038009E89F34318400CF082FC30460CF0E4
:104BF80051FC2B78A4F8C2314FF0000A84F88EA13A
:104C08000FF080FE05F09DFC0646E879A4F8C4A1E3
:104C180018B1824B0122A3F8C4216B7A2BB1B4F8E6
:104C2800C42142F00202A4F8C4212A7A2AB1B4F8B5
:104C3800C41141F00401A4F8C41197F800A01AF0B7
:104C4800020F0CD0D5F85817764F497A7F798F42E2
:104C580005D3B4F8C41141F00801A4F8C41194F8BC
:104C6800CC716E492FB1B1F8C47147F01007A1F8A3
:104C7800C47198F8001001F0040101F0FF0711B9A0
:104C88006F7400F0ECBD002195F800C06971A9713E
:104C98006349614F01EB4C110AF0100AB1F80A8020
:104CA8000AF0FF0C08F00801BAF1000F00F04C837D
:104CB80089B2002940F0B18518F0010B00F0C880D6
:104CC800D4F8B4345848DFF854A1C4F8B464F31ADB
:104CD800834204D9CAF8B86411F0FAF8B8E0002A97
:104CE80000F0B480BB78002B00F0AC80DAF8B83460
:104CF800CAF8B864F31A09EE903A4C4B19EE900AC8
:104D0800984200F29B80D5F85827DFED497A92F84F
:104D1800653097ED4C9ADFED478A019100EE103A25
:104D2800B8EEC00AB4EEE79AF1EE10FA20EE280ABF
:104D3800D8BFB0EE679A029210F090FE029A92F8ED
:104D4800662029EE00AA00EE102AB8EEC00A20EE6E
:104D5800280A10F083FEF8EEE99A69EE401A69EE27
:104D6800889AB0EE4A2AB0EE691AD5ED420A01993E
:104D780095ED4F0A07F1B00007F016FD0AF2BC40A6
:104D88000221F0EE690A85ED520A10F0F2FEF0EE0B
:104D9800490AF0EE409A85ED520A10F0EDFDF2EE68
:104DA800047A20EE270AD5F85817C0EE288A91F819
:104DB800663091F865106FF009004343FDEEE88A0C
:104DC80018EE902A12B29A4205DB01EB81014B00E2
:104DD8009A42B8BF1346FDEEE99AA5F85037D5EDCB
:104DE8004F7A154A19EE903A47F6FF718B42A8BFE1
:104DF8000B46FDEEE77A9342B8BF1346A4F8CC34CD
:104E080017EE903A8B42A8BF0B469342B8BF1346A1
:104E1800A4F8D23414E000BF04120020181F0020A8
:104E280030E60108604F0020400D03003F0D0300ED
:104E38000000964335FA8E3C5A80FFFF11F048F87F
:104E48000123AB71012384F8D43401E08AF8D42417
:104E580008F00207BFB2002F00F0A980D4F8D834B8
:104E6800C64ADFF82CA3C4F8D864F31A934204D9CD
:104E7800CAF8DC6408F0F8FF99E02A7AC04B002AE7
:104E880000F093805A78002A00F08B80DAF8DC244E
:104E9800CAF8DC64B21A08EE902ABA4A18EE905A98
:104EA800954279D8029313F073F90AF59C600AF0D9
:104EB800F3FC029BD3F818310293C01A06F08AF863
:104EC80044F2682280EAE075A5EBE0759542029B02
:104ED80001DD012207E042F22732954205DC9AF80B
:104EE800EC2412B100228AF8EC24DFF894A294F89A
:104EF800EC24002A08BF0546DAF8582792F86420FF
:104F08006FF06301514301EE901AF8EEE88A6421CC
:104F180003EB050C12FB01F105EE903A00EE10CA06
:104F280068EE888A02EE101AF8EEE50AB0EE681A02
:104F38000AF1D400F8EEE11AB8EEC22A0121B8EE5F
:104F4800C00A07F031FC90481421F0EE680A10F00E
:104F580010FEF2EE047A80EE270ABDEEC00A10EECB
:104F6800103AAAF84E37DAF818311D4448F6A0432B
:104F78009D42534603DDA5F50C45A03D04E0002DF8
:104F8800BCBF05F50C45A035C3F84C51642395FB0F
:104F9800F3F5A4F8FC5401E008F066FF784B012211
:104FA8005A71012384F8FE3401E08AF8FE2418F0CF
:104FB800030F00F032847249D1F85827B2F85E30F6
:104FC800B2F860C0B2F862A0C3EB0C0CC3EB0A0ADB
:104FD80094F8D4341FFA8CFC1FFA8AFAC3B1BBF1D7
:104FE800000F17D0B1F850370A2118B290FBF1F131
:104FF80092F86700414309B20FFA8CF8414504DB87
:105008000FFA8AF84145B8BF88461FFA88F803E0C6
:10501800984601E0D8465B4694F8FE5425B3002F25
:1050280000F0C280564992F86820B1F84E571BB27A
:1050380007EE103A29B20029B8BF494206EE101A05
:10504800F8EEC77A07EE102AF8EEC66AB8EEC77A05
:105058009FED4E6A87EE067AE6EE877AFDEEE77AEE
:1050680017EE903A9BB202E0002F00F09D80D4F832
:10507800002542494648C4F80065B21A1FFA88F864
:105088008A42CDF80C8000F5A16105D900220A609A
:10509800C0F80465002261E0DFF8E48098F8082091
:1050A800002A51D098F80120002A4FD0D0F80425C2
:1050B800C0F804653348B21A824208463ED898EDD3
:1050C8004C7ADFED347A37EEC76A77EE677A05EE09
:1050D800902AF5EEC07AF7EE086AF1EE10FA66EE5D
:1050E800266A9FED2D7A2D4AB8EEE56A48BFF1EEA3
:1050F800677A26EE088AF4EEC77AF1EE10FA26EE01
:10510800888A05DDD2ED007A37EE888A82ED008A3A
:10511800D0ED007AF5EEC07AF1EE10FA09D49FEDE1
:10512800207AF4EEC77AF1EE10FAC8BFF0EE477AAB
:1051380001E0DFED1C7AC2ED007A01E000220A608E
:105148000F4A0121517101E000220A60134AD2ED91
:10515800007AFDEEE77A17EE902A92B2039802449D
:1051680012B20FFA8CFC624504DB0FFA8AFC624526
:10517800B8BF94461FFA8CF817E000BF400D030033
:10518800041200203F0D0300082400200000C8423C
:10519800181F002000002F4400004842202400204F
:1051A8000000FA43000000003D4694F8D424C34EA2
:1051B80012B3BBF1000F1FD0D6F8581791F866202C
:1051C80091F865106FF063001BB24243934205DB10
:1051D800642211FB02F29342B8BF1A4612B200EEE3
:1051E800102AD6F86037B8EEC00AB3F9360008F0CE
:1051F80021FC4042A4F8520194F8FE34002B00F040
:105208008680002F00F08380D6F8583793F86430F2
:105218006FF063072DB25F43BD4205DB642713FBC4
:1052280007F7BD42B8BF2F463AB2D6F86037A44D4B
:10523800B3F9340000EE102AB8EEC00A08F0FAFB01
:1052480096ED4C9ADFED9F7AA4F85001B4EEE79AF8
:10525800F1EE10FA58DB7F4209EE907AF8EEE99AFF
:10526800B2EE048AC9EE889ADFED978A69EEA89AA9
:10527800B0EE690A10F0F2FBB0EE40AAB0EE690A8F
:1052880010F04EFC8AEE000AD5F84C315B79594291
:10529800DFED8E7A60EE277A07EE101AC7EE897A6C
:1052A800B8EEC77AC7EEA87A05EE903AC7EE887AC4
:1052B800F8EE656AF4EEC77AF1EE10FA07D4F4EE68
:1052C800667AF1EE10FAC8BFF0EE667A01E0F0EE09
:1052D800477A77EEC77A9FED7E6ADFED7E5A67EEF2
:1052E800867A76EEC76A87EEA67A37EE466A36EE93
:1052F800256ABDEEC66AB8EEC66ABDEEC66A16EE87
:10530800103AA4F8543102E00023A5F85431D6F835
:105318005827B2F85EC0B2F86030B2F862200CFAD2
:1053280088F8984503DB9045B4BF43461346D6F842
:105338006C170A884988934203DB8B42B4BF1A462C
:105348000A46A4F8562168E2002957D0D4F80C156B
:105358005B4BC4F80C65A4F850C1A4F852C1A4F87A
:1053680054C100283FD05C4A711A914204D9C3F84D
:10537800106508F091FB50E2BA7802B3D3F8100533
:10538800C3F81065554BC0EB0608984513D8D7F8F5
:105398005837B3F8523000EE103AB8EEC00A012080
:1053A800B1EE400A07F0E6FA404607F083F94046B6
:1053B80007F051FA01E008F06FFB0123AB71D5F853
:1053C8005837D5F86C17B3F95A20B5F954371A4439
:1053D8000B8849889A4203DB8A42B4BF13460B46BE
:1053E800A4F8563119E2D3F884210AB1528802E0B0
:1053F800D7F86C271288A3F856210EE218F0010F8F
:1054080000F08E80D4F8142533482D49C4F814656B
:10541800B21A824204D9C1F8186508F03DFB7FE052
:10542800BA78002A66D0D1F81825C1F81865C2EBF9
:10543800060A2A4A924559D83A7C42B397ED540A4B
:10544800B5EEC00AF1EE10FA21DBD7ED490AF5EE08
:10545800C00AF1EE10FA15DBA3B106EE10AAB8EEF9
:10546800C61A1F489FED1F2A21EE081AF9EE041AE2
:10547800002107F099F9D5ED427A37EE800A85EDDB
:105488004F0A04E0BBEE040A002007F073FA95ED1A
:105498004F0A17F079FC47F6FF739842A8BF1846E1
:1054A800114B9842B8BF1846A4F8D204504607F0EA
:1054B80001F9504607F0CFF91AE000BF04120020A6
:1054C800181F00200000964335FA8E3C8F2A754439
:1054D80000007A440000FA43400D03003F0D03002A
:1054E8009012002000000C425A80FFFF08F0D4FA06
:1054F8000123AB71D5F85837D5F86C17B3F95A2092
:10550800B5F954371A440B8849889A4203DB8A4212
:10551800B4BF13460B469BB2A4F85631A4F81C3509
:1055280018F0020F00F06F81D4F82035C4F8206518
:10553800F11AD5F858379B7813B9964BDF7A00E003
:105548000027954A914204D9C4F8246508F0DDFA89
:1055580059E12A7A8F4B002A00F017815A7807F010
:105568000107002A00F03481D4F82425C4F8246502
:10557800002F40F00781B61A884A964200F200814F
:10558800029306F0ADFF029BD3ED437AD3ED509A18
:1055980093ED519A79EEE79AD3ED447A39EE679A0A
:1055A80029EE090AA9EEA90A17F042FEDFED7C7A76
:1055B800B4EEE70AF1EE10FA0CDDDFED7A7A87EE49
:1055C800800AB0EEC99AF0EEE97A60EE277A20EE0A
:1055D800090A03E09FED740AF0EE407A06EE906A3D
:1055E800F8EEE68A714B9FED727AD3ED006A68EEA9
:1055F800888AB1EE672A28EE877A1E4676EEC71AA1
:10560800F4EEC21AF1EE10FA07D4F4EE671AF1EECE
:1056180010FAC8BFF0EE671A01E0F0EE421A76EE13
:10562800876AF4EEC26AF1EE10FA08D4F4EEE76A7B
:10563800F1EE10FAD4BFB0EE662AB0EE672A5D4BE1
:10564800D3ED007A37EEC78AB1EE409AB4EEC98A34
:10565800F1EE10FA9A4607D4B4EE408AF1EE10FA49
:10566800C8BFB0EE408A01E0B0EE498A37EE877ACB
:10567800B4EEC97AF1EE10FA08D4B4EEC07AF1EEBD
:1056880010FAD4BFB0EE479AB0EE409AB0EE681A5E
:10569800D5ED430A484895ED500A002107F084F8F3
:1056A800B0EE681AF0EE481AB0EE492AF0EE409AC9
:1056B800D5ED440A414895ED510A002107F074F8E8
:1056C800F0EE680AB0EE408A8AED000A3C48C6ED62
:1056D800009A0221B0EE690A10F04BFA022139480B
:1056E800B0EE409AF0EE680AB0EE480A10F041FABF
:1056F800D5ED487A95ED477ADFED330A20EE278A13
:1057080020EE070AA9EE478AA9EE270A10F034F915
:10571800F0EE408A10F004FADFED2B0A28EE000ABA
:1057280010F02AF9F2EE047A20EE270A9FED277A84
:10573800D5F8583780EE070A93F8582002EB820212
:1057480052005342BDEEC00A10EE101A994203DB14
:105758009142A8BF114600E0194668EEA78AA5F84D
:105768004E1788EE877ABDEEC77A17EE101A99425F
:1057780003DB9142B4BF0B461346A5F8503701E04E
:1057880008F0C3F901236B7122E0A3F85027A3F8AE
:105798004E2738E004120020400D03003F0D03009F
:1057A800CDCCCC3D00007544C23D2D4440240020A2
:1057B8000080D444442400202412002048120020F1
:1057C80048240020542400208F2A754435FA8E3C42
:1057D800CFB9B5F95007D5F8606700EE100AB6F9E9
:1057E8003600B8EEC00A08F025F9B5F94E17A4F846
:1057F800520100EE101AB6F93400B8EEC00A08F0EB
:1058080019F9A4F8500118F0040F06D0D5F84C2166
:10581800642392FBF3F3A4F8FC34984B5A790AB149
:1058280000225A709A7912B1944A00219170DA7A5A
:105838002AB1B4F8C42142F02002A4F8C4211A7B8A
:105848002AB1B4F8C42142F04002A4F8C4215B7B19
:105858002BB1B4F8C43143F08003A4F8C431884BA9
:105868009B78C3B1874BB3F90620B9F89C319A42AB
:1058780011DC854B5B79012B01D0192B02D199F8EA
:10588800F02142B90E2B06D003F0EF03082B1CBF02
:105898000023A4F854317D4D2A7802F0100303F058
:1058A800FF01002B54D1754B1878794B03EB40134B
:1058B8005B891E060BD4774B1B6893F8DD30002BF1
:1058C80046D0B4F87001800742D0184600E0642042
:1058D800714FDFED726AD7ED087AB9F83431B4F850
:1058E8005661F4EEE67AF1EE10FAB7EE007A00F1BE
:1058F800AB87F4EE477AF1EE10FAC8BFF0EE477ABC
:1059080036B2F61A05EE906AB8EEE56A05EE903AF8
:10591800F8EEE56A05EE900AC7EE277AB9F836611F
:10592800B8EEE55ADFED5E5AC5EE255A77EEC77A2E
:10593800A7EEA57AE6EE076AFDEEE66A16EE900A8D
:10594800984203DBB042B4BF03463346A4F856314D
:10595800544B50481B680668D4F84C8113F0080A69
:1059680033D002F0080202F0FF0A72B3434A484BF0
:10597800107803EB40135B8903F040039BB23BB103
:1059880029B9537B002B0CBF0123022300E000231D
:105998005BB213B1012B0CD115E0B4F95431002BD3
:1059A800B8BF5B420E2B04DC3F4BB3F870315F0786
:1059B80009D4B4F976210A2392FBF3F3A4F8FC3452
:1059C8004FF0010A01E04FF0020ADFF8FCB00027AF
:1059D800364B374953F8273091ED047A07EE903A61
:1059E800F8EEE77A022F67EE877ACBED007A06D1D8
:1059F800BAF1020F03D1304616F078FE2CE008EB1E
:105A080007039FED2C6ADB7805EE903A5B4207EEC0
:105A1800103A294B33F9173006EE903AF8EE657ACA
:105A2800B8EEC77AF8EEE66A37EEC77A76EE866A97
:105A38009FED226A67EE266A0A23C6EE866A36EE6C
:105A4800C77A77EE277AFDEEE77A17EE900A434396
:105A580005EE903AB8EEE50ADFED197AB4EEE70AFA
:105A6800F1EE10FA32D4DFED177AB4EEE70AF1EE70
:105A780010FAC8BFB0EE670A2AE000BF041200207F
:105A88005400002036110020E0440020384F002048
:105A980030E601081C100020302700209A99193F91
:105AA8000000C842344F0020181F0020E81F0020C3
:105AB800281000200000FA436820002000007A44E3
:105AC8000000E1C40000E14470240020B0EE670A41
